{
  "_format": "hh-sol-artifact-1",
  "contractName": "CharityDonation",
  "sourceName": "contracts/CharityDonation.sol",
  "abi": [
    {
      "inputs": [],
      "stateMutability": "nonpayable",
      "type": "constructor"
    },
    {
      "inputs": [],
      "name": "donate",
      "outputs": [],
      "stateMutability": "payable",
      "type": "function"
    },
    {
      "inputs": [
        {
          "internalType": "uint256",
          "name": "",
          "type": "uint256"
        }
      ],
      "name": "donations",
      "outputs": [
        {
          "internalType": "address",
          "name": "donor",
          "type": "address"
        },
        {
          "internalType": "uint256",
          "name": "amount",
          "type": "uint256"
        },
        {
          "internalType": "uint256",
          "name": "timestamp",
          "type": "uint256"
        }
      ],
      "stateMutability": "view",
      "type": "function"
    },
    {
      "inputs": [],
      "name": "getAllDonations",
      "outputs": [
        {
          "components": [
            {
              "internalType": "address",
              "name": "donor",
              "type": "address"
            },
            {
              "internalType": "uint256",
              "name": "amount",
              "type": "uint256"
            },
            {
              "internalType": "uint256",
              "name": "timestamp",
              "type": "uint256"
            }
          ],
          "internalType": "struct CharityDonation.Donation[]",
          "name": "",
          "type": "tuple[]"
        }
      ],
      "stateMutability": "view",
      "type": "function"
    },
    {
      "inputs": [
        {
          "internalType": "uint256",
          "name": "index",
          "type": "uint256"
        }
      ],
      "name": "getDonation",
      "outputs": [
        {
          "internalType": "address",
          "name": "",
          "type": "address"
        },
        {
          "internalType": "uint256",
          "name": "",
          "type": "uint256"
        },
        {
          "internalType": "uint256",
          "name": "",
          "type": "uint256"
        }
      ],
      "stateMutability": "view",
      "type": "function"
    },
    {
      "inputs": [],
      "name": "getDonationCount",
      "outputs": [
        {
          "internalType": "uint256",
          "name": "",
          "type": "uint256"
        }
      ],
      "stateMutability": "view",
      "type": "function"
    },
    {
      "inputs": [],
      "name": "owner",
      "outputs": [
        {
          "internalType": "address",
          "name": "",
          "type": "address"
        }
      ],
      "stateMutability": "view",
      "type": "function"
    },
    {
      "inputs": [],
      "name": "totalDonations",
      "outputs": [
        {
          "internalType": "uint256",
          "name": "",
          "type": "uint256"
        }
      ],
      "stateMutability": "view",
      "type": "function"
    },
    {
      "inputs": [],
      "name": "withdraw",
      "outputs": [],
      "stateMutability": "nonpayable",
      "type": "function"
    }
  ],
  "bytecode": "0x608060405234801561001057600080fd5b50336000806101000a81548173ffffffffffffffffffffffffffffffffffffffff021916908373ffffffffffffffffffffffffffffffffffffffff1602179055506109f6806100606000396000f3fe60806040526004361061007b5760003560e01c8063e55a62a81161004e578063e55a62a814610118578063ed88c68e14610143578063ef07a81f1461014d578063f8626af81461018c5761007b565b806338a59a07146100805780633ccfd60b146100ab5780638da5cb5b146100c2578063de2ed893146100ed575b600080fd5b34801561008c57600080fd5b506100956101cb565b6040516100a2919061073a565b60405180910390f35b3480156100b757600080fd5b506100c0610294565b005b3480156100ce57600080fd5b506100d761038b565b6040516100e4919061076b565b60405180910390f35b3480156100f957600080fd5b506101026103af565b60405161010f9190610795565b60405180910390f35b34801561012457600080fd5b5061012d6103b5565b60405161013a9190610795565b60405180910390f35b61014b6103c2565b005b34801561015957600080fd5b50610174600480360381019061016f91906107e1565b6104d9565b6040516101839392919061080e565b60405180910390f35b34801561019857600080fd5b506101b360048036038101906101ae91906107e1565b610595565b6040516101c29392919061080e565b60405180910390f35b60606002805480602002602001604051908101604052809291908181526020016000905b8282101561028b57838290600052602060002090600302016040518060600160405290816000820160009054906101000a900473ffffffffffffffffffffffffffffffffffffffff1673ffffffffffffffffffffffffffffffffffffffff1673ffffffffffffffffffffffffffffffffffffffff16815260200160018201548152602001600282015481525050815260200190600101906101ef565b50505050905090565b60008054906101000a900473ffffffffffffffffffffffffffffffffffffffff1673ffffffffffffffffffffffffffffffffffffffff163373ffffffffffffffffffffffffffffffffffffffff1614610322576040517f08c379a0000000000000000000000000000000000000000000000000000000008152600401610319906108a2565b60405180910390fd5b60008054906101000a900473ffffffffffffffffffffffffffffffffffffffff1673ffffffffffffffffffffffffffffffffffffffff166108fc479081150290604051600060405180830381858888f19350505050158015610388573d6000803e3d6000fd5b50565b60008054906101000a900473ffffffffffffffffffffffffffffffffffffffff1681565b60015481565b6000600280549050905090565b60003411610405576040517f08c379a00000000000000000000000000000000000000000000000000000000081526004016103fc9061090e565b60405180910390fd5b600260405180606001604052803373ffffffffffffffffffffffffffffffffffffffff16815260200134815260200142815250908060018154018082558091505060019003906000526020600020906003020160009091909190915060008201518160000160006101000a81548173ffffffffffffffffffffffffffffffffffffffff021916908373ffffffffffffffffffffffffffffffffffffffff1602179055506020820151816001015560408201518160020155505034600160008282546104d0919061095d565b92505081905550565b600080600080600285815481106104f3576104f2610991565b5b90600052602060002090600302016040518060600160405290816000820160009054906101000a900473ffffffffffffffffffffffffffffffffffffffff1673ffffffffffffffffffffffffffffffffffffffff1673ffffffffffffffffffffffffffffffffffffffff168152602001600182015481526020016002820154815250509050806000015181602001518260400151935093509350509193909250565b600281815481106105a557600080fd5b90600052602060002090600302016000915090508060000160009054906101000a900473ffffffffffffffffffffffffffffffffffffffff16908060010154908060020154905083565b600081519050919050565b600082825260208201905092915050565b6000819050602082019050919050565b600073ffffffffffffffffffffffffffffffffffffffff82169050919050565b60006106468261061b565b9050919050565b6106568161063b565b82525050565b6000819050919050565b61066f8161065c565b82525050565b60608201600082015161068b600085018261064d565b50602082015161069e6020850182610666565b5060408201516106b16040850182610666565b50505050565b60006106c38383610675565b60608301905092915050565b6000602082019050919050565b60006106e7826105ef565b6106f181856105fa565b93506106fc8361060b565b8060005b8381101561072d57815161071488826106b7565b975061071f836106cf565b925050600181019050610700565b5085935050505092915050565b6000602082019050818103600083015261075481846106dc565b905092915050565b6107658161063b565b82525050565b6000602082019050610780600083018461075c565b92915050565b61078f8161065c565b82525050565b60006020820190506107aa6000830184610786565b92915050565b600080fd5b6107be8161065c565b81146107c957600080fd5b50565b6000813590506107db816107b5565b92915050565b6000602082840312156107f7576107f66107b0565b5b6000610805848285016107cc565b91505092915050565b6000606082019050610823600083018661075c565b6108306020830185610786565b61083d6040830184610786565b949350505050565b600082825260208201905092915050565b7f4f6e6c79206f776e65722063616e207769746864726177000000000000000000600082015250565b600061088c601783610845565b915061089782610856565b602082019050919050565b600060208201905081810360008301526108bb8161087f565b9050919050565b7f446f6e6174696f6e206d757374206265206d6f7265207468616e203000000000600082015250565b60006108f8601c83610845565b9150610903826108c2565b602082019050919050565b60006020820190508181036000830152610927816108eb565b9050919050565b7f4e487b7100000000000000000000000000000000000000000000000000000000600052601160045260246000fd5b60006109688261065c565b91506109738361065c565b925082820190508082111561098b5761098a61092e565b5b92915050565b7f4e487b7100000000000000000000000000000000000000000000000000000000600052603260045260246000fdfea26469706673582212202546f7fe4ab56470882668d5ae8ea836de21d775eb08a0b0d4619e498de966a364736f6c63430008140033",
  "linkReferences": {},
  "deployedLinkReferences": {}
}